:100000000C9446000C945D000C945D000C945D0013
:100010000C945D000C945D000C945D000C945D00EC
:100020000C945D000C945D000C945D000C945D00DC
:100030000C945D000C945D000C945D000C945D00CC
:100040000C945D000C945D000C945D000C945D00BC
:100050000C945D000C945D000C945D000C945D00AC
:100060000C945D000C945D000C945D000C945D009C
:100070000C945D000C945D000C945D000C945D008C
:100080000C945D000C945D000C945D0011241FBE67
:10009000CFEFD0E4DEBFCDBF11E0A0E0B1E0E4EFF0
:1000A000F2E000E00BBF02C007900D92AE30B10746
:1000B000D9F70E9488000C9478010C940000CF932B
:1000C000DF9300D01F92CDB7DEB789837B836A832D
:1000D00089818A3031F48A819B81BC018DE00E9444
:1000E0005F0080EC90E0FC018081882F90E08072BE
:1000F00099270097B1F386EC90E02981FC012083D9
:1001000080E090E00F900F900F90DF91CF910895D5
:10011000CF93DF931F92CDB7DEB781E290E0FC0171
:10012000108282E290E02FEFFC01208384E290E0D5
:10013000FC01108285E290E02FEFFC01208387E232
:1001400090E02FEFFC01208388E290E0FC01108218
:100150001982198280E290E0FC018081882F90E072
:1001600081709927009719F089818F5F898380E2D8
:1001700090E0FC018081882F90E0827099270097A1
:1001800019F089818F5F898380E290E0FC01808192
:10019000882F90E084709927009719F089818F5FEC
:1001A000898380E290E0FC018081882F90E0887054
:1001B0009927009719F089818F5F898380E290E009
:1001C000FC018081882F90E080719927009719F0B9
:1001D00089818F5F898380E290E0FC018081882F94
:1001E00090E080729927009719F089818F5F898349
:1001F00080E290E0FC018081882F90E08074992754
:10020000009719F089818F5F898380E290E0FC017B
:10021000808188231CF489818F5F898383E290E049
:10022000FC018081882F90E081709927009719F058
:1002300089818F5F898383E290E0FC018081882F30
:1002400090E082709927009719F089818F5F8983E8
:1002500083E290E0FC018081882F90E084709927F0
:10026000009719F089818F5F898383E290E0FC0118
:100270008081882F90E088709927009719F08981F4
:100280008F5F898383E290E0FC018081882F90E07A
:1002900080719927009719F089818F5F898383E2A4
:1002A00090E0FC018081882F90E080729927009770
:1002B00019F089818F5F898383E290E0FC0180815E
:1002C000882F90E080749927009719F089818F5FBB
:1002D000898383E290E0FC01808188231CF489817A
:1002E0008F5F898388E290E02981FC01208331CFF0
:0402F000F894FFCFB0
:0E02F40000000002000000005F00000000009B
:00000001FF
