:100000000C9446000C945D000C945D000C945D0013
:100010000C945D000C945D000C945D000C945D00EC
:100020000C945D000C945D000C945D000C945D00DC
:100030000C945D000C945D000C945D000C945D00CC
:100040000C945D000C945D000C945D000C945D00BC
:100050000C945D000C945D000C945D000C945D00AC
:100060000C945D000C945D000C945D000C945D009C
:100070000C945D000C945D000C945D000C945D008C
:100080000C945D000C945D000C945D0011241FBE67
:10009000CFEFD0E4DEBFCDBF11E0A0E0B1E0E2EBF6
:1000A000F1E000E00BBF02C007900D92AE30B10747
:1000B000D9F70E9488000C94D7000C940000CF93CD
:1000C000DF9300D01F92CDB7DEB789837B836A832D
:1000D00089818A3031F48A819B81BC018DE00E9444
:1000E0005F0080EC90E0FC018081882F90E08072BE
:1000F00099270097B1F386EC90E02981FC012083D9
:1001000080E090E00F900F900F90DF91CF910895D5
:10011000CF93DF9300D01F92CDB7DEB78AE290E095
:10012000FC0110828BE290E02FEFFC01208384E23F
:1001300090E02EEFFC01208385E290E021E0FC01BD
:10014000208319821B821A8219821B821A8289E2F9
:1001500090E0FC018081882F90E0880F991F9B839D
:100160008A8383E290E0FC018081882F90E0817097
:1001700099279C018A819B81820F931F9B838A838D
:100180008A819B818634910520F0898182608983F0
:1001900008C08A819B818630910518F0898184602E
:1001A000898385E290E02981FC012083CDCFF894FA
:0201B000FFCF7F
:0E01B20000000002000000005F0000000000DE
:00000001FF
